:0400000033EF3FF0AB
:107E41000100000001720ED36E000E956E000E8CC3
:107E51006E938C938A9388F19E46EC3FF02DEF3F11
:107E6100F000EF00F0410EF66E7E0EF76E000EF898
:107E71006E00EE07F010EE05F00900F5CFEEFFE51C
:107E810050E150FAE1000123EF3FF0000E066E00D1
:107E91000E056E06BE56EF3FF0065009E1080E05CD
:107EA1005CD8A056EF3FF058EF3FF05AEF3FF0FF9C
:107EB100EF3FF005C001F0010E0126010E026E0137
:107EC1002A65EF3FF0D8900236012E63EF3FF005AF
:107ED100C003F0010E046E032A71EF3FF0D8900445
:107EE10036032E6FEF3FF004500224FE0F8C6E0715
:107EF10004081009100A10D8A481EF3FF083EF3F66
:107F0100F091EF3FF0020E026E040E016EBA0EE820
:107F11002EFED7012EFCD7022EFAD700D0D3EF3F89
:107F2100F0020E0718081009100A10D8A49BEF3FA1
:107F3100F09DEF3FF09FEF3FF083EF3FF0030E071F
:107F410018081009100A10D8A4A9EF3FF0ABEF3FB1
:107F5100F0B9EF3FF0030E026E080E016E770EE8E6
:107F61002EFED7012EFCD7022EFAD700F0D3EF3F19
:107F7100F0040E0718081009100A10D8A4C3EF3F27
:107F8100F0C5EF3FF0D3EF3FF0050E026E0F0E018B
:107F91006EF10EE82EFED7012EFCD7022EFAD70085
:107FA100F0D3EF3FF081BCD8EF3FF0DAEF3FF0FBC9
:107FB100EF3FF0820E016EDE0EE82EFED7012EFCA1
:107FC100D7010E0726000E082209220A22050E07F4
:107FD10018081009100A10D8A4F1EF3FF0F3EF3F91
:107FE100F0FBEF3FF0010E076E000E086E000E0968
:0F7FF1006E000E0A6E054A062A4AEF3FF0120094
:020000040020DA
:08000000FFFFFFFFFFFFFFFF00
:020000040030CA
:0E0000000008191EFF0381FF0FC00FE00F4024
:00000001FF
